BI00B1200    2399T53216     202302237196-0648-02             TERMINAL                 CCN000060000000060000FN00000000020230301000060000NNM   20230127130834    4P0P  0000150000000035550000068971200    YCYC    006400630015
BI00B1200    2399T53217     202303027196-0648-02             TERMINAL                 CCN000060000000060000FN00000000020230301000060000NNM   20230127130834    4P0P  0000150000000035550000068971200    YCYC    006400630015
BI00B1200    2399T53218     202303097196-0648-02             TERMINAL                 CCN000060000000060000FN00000000020230301000060000NNM   20230127130834    4P0P  0000150000000035550000068971200    YCYC    006400630015
BI00B1200    2399T53216     202302237196-0805-02             TERMINAL FEMALE          CCN000045000000045000FN00000000020230301000045000NNM   20230127130834    4P0P  0000225000000055800000084321200    YCYC    006400630015
BI00B1200    2399T53217     202303027196-0805-02             TERMINAL FEMALE          CCN000045000000045000FN00000000020230301000045000NNM   20230127130834    4P0P  0000225000000055800000084321200    YCYC    006400630015
BI00B1200    2399T53216     202302237288-3340-30             HOUSING MALE             CCN000001500000001500FN00000000020230301000001500NNM   20230127130834    4N0N  0000015000000086150000100641200    YCYC    005400370024
BI00B1200    2399T53216     202302237289-3342-30             HOUSING FEMALE ASS'Y     CCN000002400000002400FN00000000020230301000002400NNM   20230127130834    1N0N  0000024000000068640000090141200    YCYC    005500360039
BI00B1200    2399T53217     202303027289-3342-30             HOUSING FEMALE ASS'Y     CCN000002400000002400FN00000000020230301000002400NNM   20230127130834    1N0N  0000024000000068640000090141200    YCYC    005500360039
BI00B1200    2399T53218     202303097289-3342-30             HOUSING FEMALE ASS'Y     CCN000002400000002400FN00000000020230301000002400NNM   20230127130834    1N0N  0000024000000068640000090141200    YCYC    005500360039
BI00B1200    2399T53216     202302237289-4212-80             SEALED HOUSING ASS'Y     CCN000024000000024000FN00000000020230301000024000NNM   20230127130834    4N0N  0000020000000084860000097861200    YCYC    005400370024
BI00B1200    2399T53217     202303027289-4212-80             SEALED HOUSING ASS'Y     CCN000020000000020000FN00000000020230301000020000NNM   20230127130834    4N0N  0000020000000084860000097861200    YCYC    005400370024
BI00B1200    2399T53218     202303097289-4212-80             SEALED HOUSING ASS'Y     CCN000020000000020000FN00000000020230301000020000NNM   20230127130834    4N0N  0000020000000084860000097861200    YCYC    005400370024
BI00B1200    2399T53216     202302237289-6518-30             HOUSING FEMALE ASS'Y     CCN000004800000004800FN00000000020230301000004800NNM   20230127130834    1N0N  0000012000000082920000104921200    YCYC    005500360039
BI00B1200    2399T53217     202303027289-6518-30             HOUSING FEMALE ASS'Y     CCN000003600000003600FN00000000020230301000003600NNM   20230127130834    1N0N  0000012000000082920000104921200    YCYC    005500360039
BI00B1200    2399T53218     202303097289-6518-30             HOUSING FEMALE ASS'Y     CCN000003600000003600FN00000000020230301000003600NNM   20230127130834    1N0N  0000012000000082920000104921200    YCYC    005500360039
BI00B1200    2399T53216     202302237289-6524-30             HOUSING FEMALE ASS'Y     CCN000001680000001680FN00000000020230301000001680NNM   20230127130834    4N0N  0000002400000135120000166621200    YCYC    005500360039
BI00B1200    2399T53217     202303027289-6524-30             HOUSING FEMALE ASS'Y     CCN000001440000001440FN00000000020230301000001440NNM   20230127130834    4N0N  0000002400000135120000166621200    YCYC    005500360039
BI00B1200    2399T53218     202303097289-6524-30             HOUSING FEMALE ASS'Y     CCN000001440000001440FN00000000020230301000001440NNM   20230127130834    4N0N  0000002400000135120000166621200    YCYC    005500360039
BI00B1200    2399T53216     202302237289-7212-30             HOUSING FEMALE ASS'Y     CCN000009120000009120FN00000000020230301000009120NNM   20230127130834    4N0N  0000002400000138840000159341200    YCYC    005500360039
BI00B1200    2399T53217     202303027289-7212-30             HOUSING FEMALE ASS'Y     CCN000008880000008880FN00000000020230301000008880NNM   20230127130834    4N0N  0000002400000138840000159341200    YCYC    005500360039
BI00B1200    2399T53218     202303097289-7212-30             HOUSING FEMALE ASS'Y     CCN000008880000008880FN00000000020230301000008880NNM   20230127130834    4N0N  0000002400000138840000159341200    YCYC    005500360039
BI00B1200    2399T53216     202302237289-9553-30             SEALED ASSY FEMALE       CCN000035280000035280FN00000000020230301000035280NNM   20230127130834    4N0N  0000029400000110900000152151200    YCYC    005500360039
BI00B1200    2399T53217     202303027289-9553-30             SEALED ASSY FEMALE       CCN000035280000035280FN00000000020230301000035280NNM   20230127130834    4N0N  0000029400000110900000152151200    YCYC    005500360039
BI00B1200    2399T53218     202303097289-9553-30             SEALED ASSY FEMALE       CCN000035280000035280FN00000000020230301000035280NNM   20230127130834    4N0N  0000029400000110900000152151200    YCYC    005500360039
BI00B1200    2399T53216     202302237289-9553-50             SEALED ASSY FEMALE       CCN000011760000011760FN00000000020230301000011760NNM   20230127130834    4N0N  0000029400000110810000152061200    YCYC    005500360039
BI00B1200    2399T53217     202303027289-9553-50             SEALED ASSY FEMALE       CCN000008820000008820FN00000000020230301000008820NNM   20230127130834    4N0N  0000029400000110810000152061200    YCYC    005500360039
BI00B1200    2399T53218     202303097289-9553-50             SEALED ASSY FEMALE       CCN000008820000008820FN00000000020230301000008820NNM   20230127130834    4N0N  0000029400000110810000152061200    YCYC    005500360039
BI00B1200    2399T53216     202302237289-9612-30             HOUSING FEMALE ASS'Y     CCN000001680000001680FN00000000020230301000001680NNM   20230127130834    4N0N  0000002400000134880000166881200    YCYC    005500360039
BI00B1200    2399T53217     202303027289-9612-30             HOUSING FEMALE ASS'Y     CCN000001440000001440FN00000000020230301000001440NNM   20230127130834    4N0N  0000002400000134880000166881200    YCYC    005500360039
BI00B1200    2399T53218     202303097289-9612-30             HOUSING FEMALE ASS'Y     CCN000001440000001440FN00000000020230301000001440NNM   20230127130834    4N0N  0000002400000134880000166881200    YCYC    005500360039
BI00B1200    2399T53216     202302237289-9613-30             HOUSING FEMALE ASS'Y     CCN000000720000000720FN00000000020230301000000720NNM   20230127130834    4N0N  0000002400000126990000154371200    YCYC    005500360039
BI00B1200    2399T53217     202303027289-9613-30             HOUSING FEMALE ASS'Y     CCN000000240000000240FN00000000020230301000000240NNM   20230127130834    4N0N  0000002400000126990000154371200    YCYC    005500360039
BI00B1200    2399T53218     202303097289-9613-30             HOUSING FEMALE ASS'Y     CCN000000240000000240FN00000000020230301000000240NNM   20230127130834    4N0N  0000002400000126990000154371200    YCYC    005500360039
BI00B1200    2399T53216     202302237298-3990-30             HOUSING FEMALE ASS'Y     CCN000007680000007680FN00000000020230301000007680NNM   20230127130834    4NON  0000002400000120890000157391200    YCYC    005500360039
BI00B1200    2399T53217     202303027298-3990-30             HOUSING FEMALE ASS'Y     CCN000007680000007680FN00000000020230301000007680NNM   20230127130834    4NON  0000002400000120890000157391200    YCYC    005500360039
BI00B1200    2399T53218     202303097298-3990-30             HOUSING FEMALE ASS'Y     CCN000007680000007680FN00000000020230301000007680NNM   20230127130834    4NON  0000002400000120890000157391200    YCYC    005500360039
BI00B1200    #2399T53216    202302237189-3033                HOUSING FEMALE           CCN000019200000019200FN00000000020230301000019200NNM   20230127130834    2F0F  0000016000000121120000143121200    YCYC    005500360039
BI00B1200    #2399T53217    202303027189-3033                HOUSING FEMALE           CCN000016000000016000FN00000000020230301000016000NNM   20230127130834    2F0F  0000016000000121120000143121200    YCYC    005500360039
BI00B1200    #2399T53218    202303097189-3033                HOUSING FEMALE           CCN000016000000016000FN00000000020230301000016000NNM   20230127130834    2F0F  0000016000000121120000143121200    YCYC    005500360039
BI00B1200    #2399T53216    202302237189-3034-30             HOUSING FEMALE           CCN000011200000011200FN00000000020230301000011200NNM   20230127130834    2F0F  0000016000000097280000119281200    YCYC    005500360039
BI00B1200    #2399T53217    202303027189-3034-30             HOUSING FEMALE           CCN000008000000008000FN00000000020230301000008000NNM   20230127130834    2F0F  0000016000000097280000119281200    YCYC    005500360039
BI00B1200    #2399T53218    202303097189-3034-30             HOUSING FEMALE           CCN000008000000008000FN00000000020230301000008000NNM   20230127130834    2F0F  0000016000000097280000119281200    YCYC    005500360039
BI00B1200    #2399T53216    202302237189-3036                HOUSING FEMALE           CCN000003200000003200FN00000000020230301000003200NNM   20230127130834    2F0F  0000016000000092160000114161200    YCYC    005500360039
BI00B1200    #2399T53217    202303027189-3036                HOUSING FEMALE           CCN000003200000003200FN00000000020230301000003200NNM   20230127130834    2F0F  0000016000000092160000114161200    YCYC    005500360039
BI00B1200    #2399T53218    202303097189-3036                HOUSING FEMALE           CCN000003200000003200FN00000000020230301000003200NNM   20230127130834    2F0F  0000016000000092160000114161200    YCYC    005500360039
BI00B1200    #2399T53216    202302237198-1373-60             HOUSING FEMALE           CCN000018000000018000FN00000000020230301000018000NNM   20230127130834    2F0F  0000020000000081940000094741200    YCYC    005400370024
BI00B1200    #2399T53217    202303027198-1373-60             HOUSING FEMALE           CCN000018000000018000FN00000000020230301000018000NNM   20230127130834    2F0F  0000020000000081940000094741200    YCYC    005400370024
BI00B1200    #2399T53218    202303097198-1373-60             HOUSING FEMALE           CCN000018000000018000FN00000000020230301000018000NNM   20230127130834    2F0F  0000020000000081940000094741200    YCYC    005400370024
BI00B1200    #2399T53216    202302237289-2912-40             HOUSING FEMALE ASS'Y     CCN000006000000006000FN00000000020230301000006000NNM   20230127130834    2N0N  0000020000000080400000093101200    YCYC    005400370024
BI00B1200    #2399T53217    202303027289-2912-40             HOUSING FEMALE ASS'Y     CCN000002000000002000FN00000000020230301000002000NNM   20230127130834    2N0N  0000020000000080400000093101200    YCYC    005400370024
BI00B1200    #2399T53218    202303097289-2912-40             HOUSING FEMALE ASS'Y     CCN000002000000002000FN00000000020230301000002000NNM   20230127130834    2N0N  0000020000000080400000093101200    YCYC    005400370024
BI00B1200    2399T53219     202303237116-4111-02             TERMINAL                 CCN000022500000022500FN00000000020230401000022500NNE   20230127130834    4P0P  0000075000000052950000081771200    YCYC    006400630015
BI00B1200    2399T53219     202303237116-4112-02             TERMINAL                 CCN000132000000132000FN00000000020230401000132000NNE   20230127130834    4P0P  0000060000000045000000073821200    YCYC    006400630015
BI00B1200    #Y023E50020    202304067174-1314-30             SEALED COVER             CCN000003200000003200FN00000000020230501000003200NNE   20230127130834    2F0F  0000008000000076930000088931200    YCYC    005500360039
BI00B1200    #Y023E50021    202304067174-1314-30             SEALED COVER             CCN000003200000003200FN00000000020230501000003200NNE   20230127130834    2F0F  0000008000000076930000088931200    YCYC    005500360039
BI00B1200    #Y023E50022    202304067174-1314-30             SEALED COVER             CCN000000800000000800FN00000000020230501000000800NNE   20230127130834    2F0F  0000008000000076930000088931200    YCYC    005500360039
BI00B1200    #Y023E50023    202304067174-1314-30             SEALED COVER             CCN000000800000000800FN00000000020230501000000800NNE   20230127130834    2F0F  0000008000000076930000088931200    YCYC    005500360039
BI00B1200    #Y023E50024    202304067174-1314-30             SEALED COVER             CCN000000800000000800FN00000000020230501000000800NNE   20230127130834    2F0F  0000008000000076930000088931200    YCYC    005500360039
BI00B1200    #Y023E50025    202304067174-1314-30             SEALED COVER             CCN000003200000003200FN00000000020230501000003200NNE   20230127130834    2F0F  0000008000000076930000088931200    YCYC    005500360039
BI00B1200    #Y023E50026    202304067174-1315-30             SEALED COVER             CCN000003200000003200FN00000000020230501000003200NNE   20230127130834    2F0F  0000008000000078200000090201200    YCYC    005500360039
BI00B1200    #Y023E50027    202304067174-1315-30             SEALED COVER             CCN000003200000003200FN00000000020230501000003200NNE   20230127130834    2F0F  0000008000000078200000090201200    YCYC    005500360039
BI00B1200    #Y023E50028    202304067174-1315-30             SEALED COVER             CCN000000800000000800FN00000000020230501000000800NNE   20230127130834    2F0F  0000008000000078200000090201200    YCYC    005500360039
BI00B1200    #Y023E50029    202304067174-1315-30             SEALED COVER             CCN000000800000000800FN00000000020230501000000800NNE   20230127130834    2F0F  0000008000000078200000090201200    YCYC    005500360039
BI00B1200    #Y023E50030    202304067174-1315-30             SEALED COVER             CCN000000800000000800FN00000000020230501000000800NNE   20230127130834    2F0F  0000008000000078200000090201200    YCYC    005500360039
BI00B1200    #Y023E50031    202304067174-1315-30             SEALED COVER             CCN000002400000002400FN00000000020230501000002400NNE   20230127130834    2F0F  0000008000000078200000090201200    YCYC    005500360039
BI00B1200    Y023E50032     202304067196-0648-02             TERMINAL                 CCN000060000000060000FN00000000020230501000060000NNE   20230127130834    4P0P  0000150000000035550000068971200    YCYC    006400630015
BI00B1200    Y023E50033     202304067196-0648-02             TERMINAL                 CCN000045000000045000FN00000000020230501000045000NNE   20230127130834    4P0P  0000150000000035550000068971200    YCYC    006400630015
BI00B1200    Y023E50034     202304067196-0648-02             TERMINAL                 CCN000030000000030000FN00000000020230501000030000NNE   20230127130834    4P0P  0000150000000035550000068971200    YCYC    006400630015
BI00B1200    Y023E50035     202304067196-0648-02             TERMINAL                 CCN000015000000015000FN00000000020230501000015000NNE   20230127130834    4P0P  0000150000000035550000068971200    YCYC    006400630015
BI00B1200    Y023E50036     202304067196-0648-02             TERMINAL                 CCN000015000000015000FN00000000020230501000015000NNE   20230127130834    4P0P  0000150000000035550000068971200    YCYC    006400630015
BI00B1200    Y023E50037     202304067196-0648-02             TERMINAL                 CCN000060000000060000FN00000000020230501000060000NNE   20230127130834    4P0P  0000150000000035550000068971200    YCYC    006400630015
BI00B1200    Y023E50038     202304067289-6523-30             HOUSING FEMALE ASS'Y     CCN000003360000003360FN00000000020230501000003360NNE   20230127130834    4N0N  0000002400000129050000162051200    YCYC    005500360039
BI00B1200    Y023E50039     202304067289-6523-30             HOUSING FEMALE ASS'Y     CCN000002640000002640FN00000000020230501000002640NNE   20230127130834    4N0N  0000002400000129050000162051200    YCYC    005500360039
BI00B1200    Y023E50040     202304067289-6523-30             HOUSING FEMALE ASS'Y     CCN000000480000000480FN00000000020230501000000480NNE   20230127130834    4N0N  0000002400000129050000162051200    YCYC    005500360039
BI00B1200    Y023E50041     202304067289-6523-30             HOUSING FEMALE ASS'Y     CCN000000960000000960FN00000000020230501000000960NNE   20230127130834    4N0N  0000002400000129050000162051200    YCYC    005500360039
BI00B1200    Y023E50042     202304067289-6523-30             HOUSING FEMALE ASS'Y     CCN000000480000000480FN00000000020230501000000480NNE   20230127130834    4N0N  0000002400000129050000162051200    YCYC    005500360039
BI00B1200    Y023E50043     202304067289-6523-30             HOUSING FEMALE ASS'Y     CCN000000960000000960FN00000000020230501000000960NNE   20230127130834    4N0N  0000002400000129050000162051200    YCYC    005500360039
BI00B1200    Y023E50050     202304067289-6523-30             HOUSING FEMALE ASS'Y     CCN000002880000002880FN00000000020230501000002880NNE   20230127130834    4N0N  0000002400000129050000162051200    YCYC    005500360039
BI00A32AF    JTB301F        202302087289-6868-30             SEALED ASSY FEMALE       CCN000002520000007560FN00000000020230101000007560NNED0420230127161744    4N0N  00000252000000839200001119232AF    HBYHVTB 005500360039
BI00B32AF    JTB301F        202302107298-3822-70             HOUSING FEMALE ASS'Y     CCN000002520000002520FN00000000020230101000002520NNED0420230127155042    4N0N  00000252000000776200001077032AF    HBYHVTB 005500360039
BI00B32AF    JTB301F        202302107289-6868-30             SEALED ASSY FEMALE       CCN000002520000002520FN00000000020230101000002520NNED0420230127154940    4N0N  00000252000000839200001119232AF    HBYHVTB 005500360039
BI00B32CC    CTA32140       202302167283-4855                CONNECTOR HOUSING        CCN000012000000012000FN00000000020230101000012000NNE   20230127130834    4N0N  00000240000001188400001400032CC    BIYABCBU005500360039
BI00B32CC    CTA32140       202302167289-3342                HOUSING FEMALE ASS'Y     CCN000021600000021600FN00000000020230101000021600NNE   20230127130834    1N0N  00000240000000686400000901432CC    BIYABCBU005500360039
BI00B32CC    CTA32140       202302167289-3342-30             HOUSING FEMALE ASS'Y     CCN000021600000021600FN00000000020230101000021600NNE   20230127130834    1N0N  00000240000000686400000901432CC    BIYABCBU005500360039
BI00B32CC    CTA32140       202303167289-6868-30             SEALED ASSY FEMALE       CCN000015120000015120FN00000000020230101000015120NNED0420230127130834    4N0N  00000252000000839200001119232CC    BIYABCBU005500360039
BI00B32CC    #CTA32140      202302167283-8226-30             CONNECTOR                CCN000050000000050000FN00000000020230101000050000NNE   20230127130834    2N0N  00000200000000820000001008032CC    BIYABCBU005400370024
BI00B32CH    SJ2302A MW     202302097126-8855-02             TERMINAL                 CCN000204000000204000FN00000000020230201000204000NNED0720230127152706    4P0P  00000600000000510600000795832CH    SJSAMIJF006400630015
BI00B32CH    SJ2302B MW     202302097126-8855-02             TERMINAL                 CCN000204000000204000FN00000000020230201000204000NNE   20230127152717    4P0P  00000600000000510600000795832CH    SJSAMIJF006400630015
BI00B32CJ    #JQN3024       202302027183-2415-40             CONNECTOR HOUSING        CCN000009600000009600FN00000000020230201000009600NNMD0020230127152009    2F0F  00000480000000798200001091432CJ    QNYHVQN 005500360039
BI00B32EJ    T221223P02     202301307116-4101-02             TERMINAL                 CCN000024000000024000FN00000000020230101000024000NNED0020230127163732EJ  4P0P  00001200000000582000000876232EJ    EJYKBO  006400630015
BI00B32GE    DHTC2317       202303027116-1685-02             TERMINAL                 CCN000072000000072000FN00000000020230401000072000NNM   20230127130834    4P0P  00002400000000897600001065232GE    GEYKHT  005100280028
BI00B32GE    DHTC2317       202303027116-4110-02             TERMINAL                 CCN000018000000018000FN00000000020230401000018000NNM   20230127130834    4P0P  00000900000000594000000882232GE    GEYKHT  006400630015
BI00B32GE    DHTC2317       202303027116-4111-02             TERMINAL                 CCN000007500000007500FN00000000020230401000007500NNM   20230127130834    4P0P  00000750000000529500000817732GE    GEYKHT  006400630015
BI00B32GE    DHTC2317       202303027116-4112-02             TERMINAL                 CCN000024000000024000FN00000000020230401000024000NNM   20230127130834    4P0P  00000600000000450000000738232GE    GEYKHT  006400630015
BI00B32GE    DHTC2317       202303027158-3166-60             WIRE SEAL                CCN000040000000040000FN00000000020230401000040000NNM   20230127130834    1C0C  00004000000000104000000152432GE    GEYKHT  002700430014
BI00B32GE    DHTC2317       202303027196-1325-02             TERMINAL FEMALE          CCN000120000000120000FN00000000020230401000120000NNM   20230127130834    4P0P  00006000000000450000000778732GE    GEYKHT  006400630017
BI00B32GE    DHTC2317       202303027196-1326-02             TERMINAL FEMALE          CCN000240000000240000FN00000000020230401000240000NNM   20230127130834    4P0P  00006000000000456000000784732GE    GEYKHT  006400630017
BI00B32GE    DHTC2317       202303027196-1327-02             TERMINAL FEMALE          CCN000052000000052000FN00000000020230401000052000NNM   20230127130834    4P0P  00005200000000336000000739532GE    GEYKHT  006400630017
BI00B32GE    DHTC2317       202303027289-3342-40             HOUSING FEMALE ASS'Y     CCN000002400000002400FN00000000020230401000002400NNM   20230127130834    1N0N  00000240000000686400000901432GE    GEYKHT  005500360039
BI00B32GE    DHTC2317       202303027327-6809                MULTI FUSE               CCN000001680000001680FN00000000020230401000001680NNM   20230127130834    4N0N  00000056000000849300001061732GE    GEYKHT  005400370024
BI00B32GE    #DHTC2317      202303027047-5344                RETAINER                 CCN000010000000010000FN00000000020230401000010000NNM   20230127130834    2F0F  00001000000000870000001016032GE    GEYKHT  005600390023
BI00B32GE    #DHTC2317      202303027183-2415-90             CONNECTOR HOUSING        CCN000004800000004800FN00000000020230401000004800NNM   20230127130834    2F0F  00000480000000798200001091432GE    GEYKHT  005500360039
BI00B32GE    #DHTC2317      202303027189-3036                HOUSING FEMALE           CCN000003200000003200FN00000000020230401000003200NNM   20230127130834    2F0F  00000160000000921600001141632GE    GEYKHT  005500360039
BI00B32GE    #DHTC2317      202303027282-7424                CONNECTOR                CCN000004000000004000FN00000000020230401000004000NNM   20230127130834    2N0N  00000400000001064000001243032GE    GEYKHT  005500360039
BI00B32GE    #DHTC2317      202303027283-8226-30             CONNECTOR                CCN000002000000002000FN00000000020230401000002000NNM   20230127130834    2N0N  00000200000000820000001008032GE    GEYKHT  005400370024
BI00B32GE    #DHTC2317      202303027289-3622-30             HOUSING FEMALE ASS'Y     CCN000001728000001728FN00000000020230401000001728NNM   20230127130834    2N0N  00000043200000839400001038432GE    GEYKHT  005400370024
BI00B32G7    #JJ2303BKMW    202302167157-3992-90             CONNECTOR SEALED         CCN000040000000040000FN00000000020230301000040000NNE   20230127152724    2C0C  00004000000000300000000363332G7    JIJAI   002700430014
BI00B32G7    #JJ2303BKMW    202302167158-3654-80             WIRE TUBE                CCN000040000000040000FN00000000020230301000040000NNE   20230127152724    2H0H  00004000000000104000000152232G7    JIJAI   004300270014
BI00B32G7    #JJ2303BKMW    202302167183-7725-40             HOUSING                  CCN000006000000006000FN00000000020230301000006000NNE   20230127152724    2F0F  00000600000000840000001040032G7    JIJAI   005600390040
BI00B32G7    @JJ2303BKMW    202302167123-4312-30             HOUSING                  CCN000001600000001600FN00000000020230301000001600NNE   20230127152726    3F0F  00000080000000641900000793232G7    JIJAI   005500360039
BI00B32G7    JJ2303C MW     202302167017-1182-02             TERMINAL                 CCN000045000000045000FN00000000020230301000045000NNE   20230127152734    4P0P  00004500000001165500001318632G7    JIJAI   005100280028
BI00B32G7    JJ2303C MW     202302167114-4032                TERMINAL                 CCN000007500000007500FN00000000020230301000007500NNE   20230127152734    4P0P  00000750000000735000001063632G7    JIJAI   006400630017
BI00B32G7    JJ2303C MW     202302167114-5747-02             TERMINAL                 CCN000018000000018000FN00000000020230301000018000NNE   20230127152734    4P0P  00001800000000626400000920032G7    JIJAI   006400630015
BI00B32G7    JJ2303C MW     202302167116-2891-02             TERMINAL                 CCN000015000000015000FN00000000020230301000015000NNE   20230127152734    4P0P  00001500000000982500001145932G7    JIJAI   005100280028
BI00B32G7    JJ2303C MW     202302167116-5044-02             TERMINAL                 CCN000016000000016000FN00000000020230301000016000NNE   20230127152734    4P0P  00001600000000641600000986332G7    JIJAI   006400630017
BI00B32G7    JJ2303C MW     202302167116-5046-02             TERMINAL                 CCN000012000000012000FN00000000020230301000012000NNE   20230127152734    4P0P  00001200000000544800000873532G7    JIJAI   006400630017
BI00B32G7    JJ2303C MW     202302167116-6042                TERMINAL                 CCN000006000000006000FN00000000020230301000006000NNE   20230127152734    4P0P  00000300000000523800000856132G7    JIJAI   006400630015
BI00B32G7    JJ2303C MW     202302167126-8853-02             TERMINAL                 CCN000007500000007500FN00000000020230301000007500NNE   20230127152734    4P0P  00000750000000562500000847732G7    JIJAI   006400630015
BI00B32G7    JJ2303C MW     202302167126-8855-02             TERMINAL                 CCN000018000000018000FN00000000020230301000018000NNE   20230127152734    4P0P  00000600000000510600000795832G7    JIJAI   006400630015
BI00B32G7    JJ2303C MW     202302167288-3337-30             HOUSING MALE             CCN000001500000001500FN00000000020230301000001500NNE   20230127152734    4N0N  00000150000000867000001012032G7    JIJAI   005400370024
BI00B32G7    #JJ2303C MW    202302167123-6347                CONNECTOR HOUSING        CCN000003200000003200FN00000000020230301000003200NNE   20230127152733    2F0F  00000160000000647000000904832G7    JIJAI   005500360039
BI00B32G7    JJ2303CMMW     202302167126-8890-02             FUSE TERMINAL            CCN000006000000006000FN00000000020230301000006000NNE   20230127152742    4P0P  00000600000000465000000750232G7    JIJAI   006400630015
BI00B32G7    JJ2303CMMW     202302167126-8892-02             FUSE TERMINAL            CCN000012000000012000FN00000000020230301000012000NNE   20230127152742    4P0P  00000600000000495000000780232G7    JIJAI   006400630015
BI00B32G7    JJ2303CMMW     202302167196-1326-02             TERMINAL FEMALE          CCN000060000000060000FN00000000020230301000060000NNE   20230127152742    4P0P  00006000000000456000000784732G7    JIJAI   006400630017
BI00B32G7    JJ2303CMMW     202302167196-1933-02             TERMINAL FEMALE          CCN000021000000021000FN00000000020230301000021000NNE   20230127152742    4P0P  00002100000000590100000875332G7    JIJAI   006400630015
BI00B32G7    JJ2303CMMW     202302167196-2032-02             TERMINAL FEMALE          CCN000015000000015000FN00000000020230301000015000NNE   20230127152742    4P0P  00001500000001071000001234432G7    JIJAI   005100280028
BI00B32G7    JJ2303CMMW     202302167289-5979-30             HOUSING FEMALE ASS'Y     CCN000000252000000252FN00000000020230301000000252NNE   20230127152742    1N0N  00000025200000854700001064732G7    JIJAI   005400370024
BI00B32G7    JJ2303CMMW     202302167289-6518-30             HOUSING FEMALE ASS'Y     CCN000001200000001200FN00000000020230301000001200NNE   20230127152742    1N0N  00000120000000829200001049232G7    JIJAI   005500360039
BI00B32G7    JJ2303CMMW     202302167327-6731-3W             BATTERY FUSE             CCN000000256000000256FN00000000020230301000000256NNE   20230127152742    4N0N  00000006400000697600000843032G7    JIJAI   005400370024
BI00B32G7    #JJ2303CMMW    202302167158-3005-80             RUBBER STOPPER           CCN000020000000020000FN00000000020230301000020000NNE   20230127152740    2H0H  00002000000000210000000268732G7    JIJAI   002700430014
BI00B32G7    #JJ2303CMMW    202302167172-5628-80             DUMMY PLUG               CCN000020000000020000FN00000000020230301000020000NNE   20230127152740    2H0H  00002000000000110600000162032G7    JIJAI   004300270014
BI00B32G7    #JJ2303CMMW    202302167183-2415-30             CONNECTOR HOUSING        CCN000004800000004800FN00000000020230301000004800NNE   20230127152740    2F0F  00000480000000798200001091432G7    JIJAI   005500360039
BI00B32H2    #TIJ3024       202302027183-2418-30             CONNECTOR HOUSING        CCN000009600000009600FN00000000020230201000009600NNMD0020230127151919    2F0F  00000480000000917000001235332H2    HVYHV   005500360039
BI00B32J1    #401683        202302067157-3950-80             SEAL RUBBER              CCN000080000000040000FN00000000020230201000040000NNMM0020230127130834    2C0C  00004000000000384000000584032J1    UKYEL-BL002700430014
BI00B32J1    #401683        202302067158-3003-90             RUBBER STOPPER           CCN000140000000120000FN00000000020230201000120000NNMD0020230127130834    2C0C  00002000000000250000000306032J1    UKYEL-BL002700430014
BI00B32J1    #401869        202302067158-3120-90             CONNECTOR WIRE SEAL      CCN000080000000040000FN00000000020230201000040000NNMD0020230127130834    2C0C  00002000000000136000000194032J1    UKYEL-BL002700430014
BI00A32J1    #401683        202302067157-3950-80             SEAL RUBBER              CCN000040000000040000FN00000000020230201000040000NNMM0020230127134825    2C0C  00004000000000384000000584032J1    UKYEL-BL002700430014
BI00A32J1    #401683        202302067158-3003-90             RUBBER STOPPER           CCN000020000000020000FN00000000020230201000020000NNMD0020230127134825    2C0C  00002000000000250000000306032J1    UKYEL-BL002700430014
BI00A32J1    #401869        202302067158-3120-90             CONNECTOR WIRE SEAL      CCN000040000000040000FN00000000020230201000040000NNMD0020230127134825    2C0C  00002000000000136000000194032J1    UKYEL-BL002700430014
BI00B32J1    402057         202302207B58-3070-80             RUBBER STOPPER           CCN000040000000040000FN00000000020230201000040000NNM00020230127130834    1C0C  00004000000000276000000333032J1    UKYEL-BL004300270014
BI00B32J1    402057         202302207116-4020                TERMINAL                 CCN000081000000081000FN00000000020230201000081000NNM00020230127130834    4P0P  00001350000000513000000798232J1    UKYEL-BL006400630015
BI00B32J1    402057         202302207116-6042                TERMINAL                 CCN000024000000024000FN00000000020230201000024000NNM00020230127130834    4P0P  00000300000000523800000856132J1    UKYEL-BL006400630015
BI00B32J1    402057         202302207158-3166-60             WIRE SEAL                CCN002160000002160000FN00000000020230201002160000NNM00020230127130834    1C0C  00004000000000104000000152432J1    UKYEL-BL002700430014
BI00B32J1    402057         202302207158-3167-61             WIRE SEAL                CCN000180000000180000FN00000000020230201000180000NNM00020230127130834    1C0C  00002000000000048000000096432J1    UKYEL-BL004300270014
BI00B32J1    402057         202302207158-3167-80             WIRE SEAL                CCN002640000002640000FN00000000020230201002640000NNM00020230127130834    1C0C  00002000000000048000000109032J1    UKYEL-BL002700430014
BI00B32J1    402057         202302207158-3168-80             SEALED                   CCN001000000001000000FN00000000020230201001000000NNM00020230127130834    1C0C  00002000000000044000000092132J1    UKYEL-BL004300260014
BI00B32J1    402057         202302207196-0104-02             TERMINAL                 CCN000038000000038000FN00000000020230201000038000NNM00020230127130834    4P0P  00003800000000570000000956432J1    UKYEL-BL006400630017
BI00B32J1    402057         202302207196-1461-02             TERMINAL FEMALE          CCN000552000000552000FN00000000020230201000552000NNM00020230127130834    4P0P  00002400000000386400000671632J1    UKYEL-BL006400630015
BI00B32J1    402057         202302207196-1461-06             TERMINAL FEMALE          CCN000168000000168000FN00000000020230201000168000NNM00020230127130834    4P0P  00002400000000386400000692932J1    UKYEL-BL006400630015
BI00B32J1    402057         202302207196-1462-06             TERMINAL FEMALE          CCN000021000000021000FN00000000020230201000021000NNM00020230127130834    4P0P  00002100000000352800000659332J1    UKYEL-BL006400630015
BI00B32J1    402057         202302207282-6448-40             CONNECTOR                CCN000000800000000800FN00000000020230201000000800NNM00020230127130834    4N0N  00000080000000887000001152732J1    UKYEL-BL005600390040
BI00B32J1    402057         202302207283-5545-10             CONNECTOR                CCN000004200000004200FN00000000020230201000004200NNM00020230127130834    4N0N  00000060000001279000001409232J1    UKYEL-BL005600390040
BI00B32J1    402057         202302207283-6448-40             CONNECTOR                CCN000003000000003000FN00000000020230201000003000NNM00020230127130834    4N0N  00000150000001087000001329032J1    UKYEL-BL005600390040
BI00B32J1    402057         202302207327-6840-3W             BATTERY FUSE             CCN000002160000002160FN00000000020230201000002160NNM00020230127130834    4N0N  00000007200001140900001355932J1    UKYEL-BL005500360039
BI00B32J1    #402057        202303137047-5344                RETAINER                 CCN000010000000010000FN00000000020230201000010000NNM   20230127130834    2F0F  00001000000000870000001016032J1    UKYEL-BL005600390023
BI00B32J1    #402057        202303137157-3821                RUBBER STOPPER           CCN000060000000060000FN00000000020230201000060000NNM   20230127130834    2C0C  00002000000000176000000238032J1    UKYEL-BL002700430014
BI00B32J1    #402057        202303137158-3004-40             RUBBER STOPPER           CCN000060000000060000FN00000000020230201000060000NNM   20230127130834    2C0C  00002000000000234000000306332J1    UKYEL-BL002700430014
BI00B32J1    #402057        202303137158-3008-80             RUBBER STOPPER           CCN000020000000020000FN00000000020230201000020000NNM   20230127130834    2C0C  00002000000000288000000343032J1    UKYEL-BL004300270014
BI00B32J1    #402057        202303137158-3120-90             CONNECTOR WIRE SEAL      CCN000140000000140000FN00000000020230201000140000NNM   20230127130834    2C0C  00002000000000136000000194032J1    UKYEL-BL002700430014
BI00B32J1    #402057        202303137158-3374-90             CONNECTOR WIRE SEAL      CCN000020000000020000FN00000000020230201000020000NNM   20230127130834    2H0H  00002000000000172000000229332J1    UKYEL-BL002700430014
BI00B32J1    #402057        202303137183-7725-40             HOUSING                  CCN000006000000006000FN00000000020230201000006000NNM   20230127130834    2F0F  00000600000000840000001040032J1    UKYEL-BL005600390040
BI00B32J1    #402057        202303137282-3243-40             CONNECTOR                CCN000016000000016000FN00000000020230201000016000NNM   20230127130834    2N0N  00000080000001006000001282332J1    UKYEL-BL005600390040
BI00B32J1    #402057        202303137282-6446-40             CONNECTOR                CCN000001500000001500FN00000000020230201000001500NNM   20230127130834    2N0N  00000150000001185000001368032J1    UKYEL-BL005500360039
BI00B32J1    #402057        202303137282-6457-40             CONNECTOR                CCN000002400000002400FN00000000020230201000002400NNM   20230127130834    2N0N  00000080000001137000001421332J1    UKYEL-BL005600390040
BI00B32J1    #402057        202303137283-8226-30             CONNECTOR                CCN000004000000004000FN00000000020230201000004000NNM   20230127130834    2N0N  00000200000000820000001008032J1    UKYEL-BL005400370024
BI00B32J1    402175         202303137283-1968-30             CONNECTOR                CCN000001800000001800FN00000000020230301000001800NNE   20230127130834    1N0N  00000090000001140000001318332J1    UKYEL-BL005600390040
BI00B32J1    #402175        202303137283-4192-40             CONNECTOR                CCN000000240000000240FN00000000020230301000000240NNE   20230127130834    2N0N  00000024000000846000000986032J1    UKYEL-BL005600390040
BI00B32M3    SM2302BHMW     202302097298-1853-10             HOUSING FEMALE ASS'Y     CCN000003900000003900FN00000000020230201000003900NNE   20230127152753    4N00  00000390000001240500001405832M3    SASAMI  005400370024
BI00B32M3    SM2302BMMW     202302097116-4116-02             TERMINAL                 CCN000006900000006900FN00000000020230201000006900NNE   20230127152800    4P0P  00000690000000517500000805732M3    SASAMI  006400630015
BI00B32M3    SM2302E MW     202302097114-4728-02             TERMINAL                 CCN000420000000420000FN00000000020230201000420000NNE   20230127152813    4P0P  00003000000000510000000804232M3    SASAMI  006400630015
BI00B32M3    SM2302E MW     202302097114-4729-02             TERMINAL                 CCN000240000000240000FN00000000020230201000240000NNE   20230127152813    4P0P  00003000000000516000000810232M3    SASAMI  006400630015
BI00B32M3    SM2302E MW     202302097114-5746-02             TERMINAL                 CCN000042000000042000FN00000000020230201000042000NNE   20230127152813    4P0P  00002100000000695100000988732M3    SASAMI  006400630015
BI00B32M3    SM2302E MW     202302097114-5747-02             TERMINAL                 CCN000036000000036000FN00000000020230201000036000NNE   20230127152813    4P0P  00001800000000626400000920032M3    SASAMI  006400630015
BI00B32M3    SM2302E MW     202302097114-5748-02             TERMINAL                 CCN000096000000096000FN00000000020230201000096000NNE   20230127152813    4P0P  00001200000000444000000737632M3    SASAMI  006400630015
BI00B32M3    SM2302E MW     202302097114-5753-02             TERMINAL                 CCN000027000000027000FN00000000020230201000027000NNE   20230127152813    4P0P  00002700000000847800001141432M3    SASAMI  006400630015
BI00B32M3    SM2302E MW     202302097116-3153-02             TERMINAL FEMALE          CCN000810000000810000FN00000000020230201000810000NNE   20230127152813    4P0P  00002700000000459000000744232M3    SASAMI  006400630015
BI00B32M3    SM2302E MW     202302097116-3154-02             TERMINAL FEMALE          CCN000297000000297000FN00000000020230201000297000NNE   20230127152813    4P0P  00002700000000469800000755032M3    SASAMI  006400630015
BI00B32M3    SM2302E MW     202302097116-4020                TERMINAL                 CCN000013500000013500FN00000000020230201000013500NNE   20230127152813    4P0P  00001350000000513000000798232M3    SASAMI  006400630015
BI00B32M3    SM2302E MW     202302097116-4028-08             TERMINAL FEMALE          CCN000048000000048000FN00000000020230201000048000NNE   20230127152813    4P0P  00001600000000652800000981532M3    SASAMI  006400630017
BI00B32M3    SM2302E MW     202302097116-4031                TERMINAL                 CCN000007500000007500FN00000000020230201000007500NNE   20230127152813    4P0P  00000750000000619500000904732M3    SASAMI  006400630015
BI00B32M3    SM2302E MW     202302097116-5035-02             TERMINAL                 CCN000135000000135000FN00000000020230201000135000NNE   20230127152813    4P0P  00001500000000543000000828232M3    SASAMI  006400630015
BI00B32M3    SM2302E MW     202302097116-5041-02             TERMINAL                 CCN000045000000045000FN00000000020230201000045000NNE   20230127152813    4P0P  00001500000000583500000868732M3    SASAMI  006400630015
BI00B32M3    SM2302E MW     202302097116-5042-02             TERMINAL                 CCN000013500000013500FN00000000020230201000013500NNE   20230127152813    4P0P  00001350000000560300000845532M3    SASAMI  006400630015
BI00B32M3    SM2302E MW     202302097116-5043-02             TERMINAL FEMALE          CCN000048000000048000FN00000000020230201000048000NNE   20230127152813    4P0P  00001200000000559200000844432M3    SASAMI  006400630015
BI00B32M3    SM2302E MW     202302097116-5044-02             TERMINAL                 CCN000080000000080000FN00000000020230201000080000NNE   20230127152813    4P0P  00001600000000641600000986332M3    SASAMI  006400630017
BI00B32M3    SM2302E MW     202302097116-5750-02             TERMINAL                 CCN000030000000030000FN00000000020230201000030000NNE   20230127152813    4P0P  00001500000000457500000742732M3    SASAMI  006400630015
BI00B32M3    SM2302E MW     202302097116-5751-02             TERMINAL                 CCN000048000000048000FN00000000020230201000048000NNE   20230127152813    4P0P  00001200000000379200000664432M3    SASAMI  006400630015
BI00B32M3    SM2302E MW     202302097116-5752-02             TERMINAL                 CCN000063000000063000FN00000000020230201000063000NNE   20230127152813    4P0P  00002100000000571200000856432M3    SASAMI  006400630015
BI00B32M3    SM2302E MW     202302097158-3009-60             RUBBER STOPPER           CCN000080000000080000FN00000000020230201000080000NNE   20230127152813    1C0C  00002000000000338000000386232M3    SASAMI  002700430014
BI00B32M3    SM2302E MW     202302097282-4577                HOUSING MALE ASS'Y       CCN000016800000016800FN00000000020230201000016800NNE   20230127152813    4N0N  00000240000000964800001174832M3    SASAMI  005500360039
BI00B32M3    SM2302E MW     202302097283-1110                CONNECTOR                CCN000010000000010000FN00000000020230201000010000NNE   20230127152813    4N0N  00000200000000878000001067532M3    SASAMI  005500360039
BI00B32M3    SM2302E MW     202302097283-1144                CONNECTOR                CCN000004800000004800FN00000000020230201000004800NNE   20230127152813    4N0N  00000240000000602200000866132M3    SASAMI  005500360039
BI00B32M3    SM2302E MW     202302097283-1968-30             CONNECTOR                CCN000002700000002700FN00000000020230201000002700NNE   20230127152813    1N0N  00000090000001140000001318332M3    SASAMI  005600390040
BI00B32M3    SM2302E MW     202302097283-4576                HOUSING FEMALE ASS'Y     CCN000004800000004800FN00000000020230201000004800NNE   20230127152813    4N0N  00000480000000651300000871332M3    SASAMI  005500360039
BI00B32M3    SM2302E MW     202302097283-4854                CONNECTOR HOUSING        CCN000004800000004800FN00000000020230201000004800NNE   20230127152813    4N0N  00000240000000694100000914132M3    SASAMI  005500360039
BI00B32M3    SM2302E MW     202302097286-3885                CONNECTOR MALE ASS'Y     CCN000015600000015600FN00000000020230201000015600NNE   20230127152813    1N0N  00000120000000910600001130632M3    SASAMI  005500360039
BI00B32M3    SM2302E MW     202302097286-3885-40             CONNECTOR MALE ASS'Y     CCN000003600000003600FN00000000020230201000003600NNE   20230127152813    1N0N  00000120000000910600001130632M3    SASAMI  005500360039
BI00B32M3    SM2302E MW     202302097287-3885                HYBRID FEMALE ASS'Y      CCN000002400000002400FN00000000020230201000002400NNE   20230127152813    1N0N  00000240000001029600001249632M3    SASAMI  005500360039
BI00B32M3    SM2302E MW     202302097287-3885-40             HYBRID FEMALE ASS'Y      CCN000002400000002400FN00000000020230201000002400NNE   20230127152813    1N0N  00000240000001029600001249632M3    SASAMI  005500360039
BI00B32M3    #SM2302E MW    202302097158-3008-80             RUBBER STOPPER           CCN000020000000020000FN00000000020230201000020000NNE   20230127152809    2C0C  00002000000000288000000343032M3    SASAMI  004300270014
BI00B32M3    #SM2302E MW    202302097183-2419                HOUSING                  CCN000004800000004800FN00000000020230201000004800NNE   20230127152809    2F0F  00000480000001065600001352732M3    SASAMI  005500360039
BI00B32M3    #SM2302E MW    202302097187-1616                HOUSING FEMALE           CCN000004000000004000FN00000000020230201000004000NNE   20230127152809    2F0F  00000400000001152000001262032M3    SASAMI  005500360039
BI00B32M3    @SM2302E MW    202302097283-1223-30             HOUSING SUB ASSEMBLY     CCN000009600000009600FN00000000020230201000009600NNE   20230127152811    3N0N  00000480000000749300000998032M3    SASAMI  005500360039
BI00B32M3    SM2302EDMW     202302097116-4486-02             TERMINAL                 CCN000280000000280000FN00000000020230201000280000NNE   20230127152838    4P0P  00002800000000666400000995132M3    SASAMI  006400630017
BI00B32M3    SM2302EDMW     202302097282-4578                HOUSING MALE ASS'Y       CCN000004800000004800FN00000000020230201000004800NNE   20230127152838    4N0N  00000120000000782600000992632M3    SASAMI  005500360039
BI00B32M3    SM2302EDMW     202302097283-4855                CONNECTOR HOUSING        CCN000007200000007200FN00000000020230201000007200NNE   20230127152838    4N0N  00000240000001188400001400032M3    SASAMI  005500360039
BI00B32M3    SM2302EDMW     202302097283-5832-30             CONNECTOR HOUSING        CCN000002400000002400FN00000000020230201000002400NNE   20230127152838    1N0N  00000240000000723800000873832M3    SASAMI  005500360039
BI00B32M3    SM2302EDMW     202302097286-1899                HOUSING SUB ASSEMBLY     CCN000004704000004704FN00000000020230201000004704NNE   20230127152838    4N0N  00000033600000814800001010832M3    SASAMI  005400370024
BI00B32M3    SM2302EDMW     202302097286-1900                CONNECTOR HOUSING        CCN000004800000004800FN00000000020230201000004800NNE   20230127152838    4N0N  00000480000001161600001376632M3    SASAMI  005500360039
BI00B32M3    SM2302EDMW     202302097289-3342-30             HOUSING FEMALE ASS'Y     CCN000036000000036000FN00000000020230201000036000NNE   20230127152838    1N0N  00000240000000686400000901432M3    SASAMI  005500360039
BI00B32M3    SM2302EDMW     202302097386-2747                CONNECTOR ASS'Y          CCN000004000000004000FN00000000020230201000004000NNE   20230127152838    4N0N  00000200000001162000001284532M3    SASAMI  005400370024
BI00B32M3    #SM2302EDMW    202302097282-5528-70             HOUSING MALE ASS'Y       CCN000003000000003000FN00000000020230201000003000NNE   20230127152828    2N0N  00000100000000230000000339032M3    SASAMI  005400370024
BI00B32M3    #SM2302EDMW    202302097287-1669                HOUSING FEMALE ASS'Y     CCN000004000000004000FN00000000020230201000004000NNE   20230127152828    2N0N  00000200000000788800000960032M3    SASAMI  005400370024
BI00B32M3    #SM2302EDMW    202302097287-1671                HOUSING FEMALE ASS'Y     CCN000004000000004000FN00000000020230201000004000NNE   20230127152828    2N0N  00000200000000782600000960032M3    SASAMI  005400370024
BI00B32M3    #SM2302EDMW    202302097287-1915                CONNECTOR ASS'Y          CCN000007200000007200FN00000000020230201000007200NNE   20230127152828    2N0N  00000240000000666500000923132M3    SASAMI  005500360039
BI00B32M3    #SM2302EDMW    202302097287-1915-30             CONNECTOR ASS'Y          CCN000004800000004800FN00000000020230201000004800NNE   20230127152828    2N0N  00000240000000666500000923132M3    SASAMI  005500360039
BI00B32M3    @SM2302EDMW    202302097183-2510                HOUSING                  CCN000003000000003000FN00000000020230201000003000NNE   20230127152832    3F0F  00000300000001063500001159032M3    SASAMI  005400370024
BI00B32M3    @SM2302EDMW    202302097283-7443-30             HOUSING SUB ASSEMBLY     CCN000007200000007200FN00000000020230201000007200NNE   20230127152832    3N0N  00000240000000683700000908032M3    SASAMI  005500360039
BI00B32M8    #PM2303BTMW    202302227172-5631-60             RUBBER STOPPER           CCN000020000000020000FN00000000020230301000020000NNE   20230127130834    2H0H  00002000000000042000000093132M8    PMPEMI  004300270014
BI00B32M8    PM2303C MW     202302227116-2893-02             TERMINAL                 CCN000012000000012000FN00000000020230301000012000NNE   20230127130834    4P0P  00001200000000895200001058632M8    PMPEMI  005100280028
BI00B32M8    PM2303C MW     202302227116-3154-02             TERMINAL FEMALE          CCN000027000000027000FN00000000020230301000027000NNE   20230127130834    4P0P  00002700000000469800000755032M8    PMPEMI  006400630015
BI00B32M8    PM2303C MW     202302227116-5041-02             TERMINAL                 CCN000015000000015000FN00000000020230301000015000NNE   20230127130834    4P0P  00001500000000583500000868732M8    PMPEMI  006400630015
BI00B32M8    PM2303C MW     202302227126-8854-02             TERMINAL                 CCN000007500000007500FN00000000020230301000007500NNE   20230127130834    4P0P  00000750000000604500000889732M8    PMPEMI  006400630015
BI00B32M8    PM2303C MW     202302227158-3009-60             RUBBER STOPPER           CCN000020000000020000FN00000000020230301000020000NNE   20230127130834    1C0C  00002000000000338000000386232M8    PMPEMI  002700430014
BI00B32N1    NST2301DCU     202302167283-1928-80             CONNECTOR                CCN000050000000030000FN00000000020230301000030000NNED0720230127152332    4N0N  00000200000001180000001358332N1    TAYIPL  005500360039
BI00B32N1    NST2301DCU     202302237283-1928-80             CONNECTOR                CCN000020000000020000FN00000000020230301000020000NNED0720230127152344    4N0N  00000200000001180000001358332N1    TAYIPL  005500360039
BI00A32P8    #TAPI-3032     202301307158-3121-80             WIRE SEAL                CCN000020000000020000FN00000000020230301000020000NNMD0020230127143918    2C0C  00002000000000118000000187332P8    YIYTM   002700430014
BI00B32W4    @4500203615    202303027286-1238-30             CONNECTOR                CCN000003600000003600FN00000000020230101000003600NNEM0020230127163453W4N23N0N  00000120000001224000001466032W4N2  HJYHK-J 005500360039
BI00B32Y6    STAP33052      202302027116-5044-02             TERMINAL                 CCN000044000000048000FN00000000020230501000048000NNED0020230127143118    4P0P  00001600000000641600000986332Y6    BSYBL-S 006400630017
BI00B32Y6    STAP33052      202302027327-6581-3W             BATTERY FUSE             CCN000000864000000864FN00000000020230501000000864NNED0020230127143150    4N0N  00000007200001230000001422532Y6    BSYBL-S 005500360039
BI00B32Y6    STAP33052      202302027388-0313-30             CONNECTOR ASS'Y          CCN000002400000002400FN00000000020230501000002400NNED0020230127143211    4N0N  00000120000000995000001125032Y6    BSYBL-S 005400370024
BI00B32Y6    STAP33052      202302027388-0315-40             CONNECTOR ASS'Y          CCN000000500000001200FN00000000020230501000001200NNED0020230127143232    4N0N  00000120000000999600001129632Y6    BSYBL-S 005400370024